{
  "_format": "hh-sol-artifact-1",
  "contractName": "DecentralizedEstate",
  "sourceName": "contracts/decentralized_estate.sol",
  "abi": [
    {
      "inputs": [],
      "stateMutability": "nonpayable",
      "type": "constructor"
    },
    {
      "inputs": [],
      "name": "DecentralizedEstate__PriceNotMet",
      "type": "error"
    },
    {
      "inputs": [
        {
          "internalType": "address",
          "name": "sender",
          "type": "address"
        },
        {
          "internalType": "uint256",
          "name": "tokenId",
          "type": "uint256"
        },
        {
          "internalType": "address",
          "name": "owner",
          "type": "address"
        }
      ],
      "name": "ERC721IncorrectOwner",
      "type": "error"
    },
    {
      "inputs": [
        {
          "internalType": "address",
          "name": "operator",
          "type": "address"
        },
        {
          "internalType": "uint256",
          "name": "tokenId",
          "type": "uint256"
        }
      ],
      "name": "ERC721InsufficientApproval",
      "type": "error"
    },
    {
      "inputs": [
        {
          "internalType": "address",
          "name": "approver",
          "type": "address"
        }
      ],
      "name": "ERC721InvalidApprover",
      "type": "error"
    },
    {
      "inputs": [
        {
          "internalType": "address",
          "name": "operator",
          "type": "address"
        }
      ],
      "name": "ERC721InvalidOperator",
      "type": "error"
    },
    {
      "inputs": [
        {
          "internalType": "address",
          "name": "owner",
          "type": "address"
        }
      ],
      "name": "ERC721InvalidOwner",
      "type": "error"
    },
    {
      "inputs": [
        {
          "internalType": "address",
          "name": "receiver",
          "type": "address"
        }
      ],
      "name": "ERC721InvalidReceiver",
      "type": "error"
    },
    {
      "inputs": [
        {
          "internalType": "address",
          "name": "sender",
          "type": "address"
        }
      ],
      "name": "ERC721InvalidSender",
      "type": "error"
    },
    {
      "inputs": [
        {
          "internalType": "uint256",
          "name": "tokenId",
          "type": "uint256"
        }
      ],
      "name": "ERC721NonexistentToken",
      "type": "error"
    },
    {
      "inputs": [
        {
          "internalType": "address",
          "name": "owner",
          "type": "address"
        }
      ],
      "name": "OwnableInvalidOwner",
      "type": "error"
    },
    {
      "inputs": [
        {
          "internalType": "address",
          "name": "account",
          "type": "address"
        }
      ],
      "name": "OwnableUnauthorizedAccount",
      "type": "error"
    },
    {
      "anonymous": false,
      "inputs": [
        {
          "indexed": true,
          "internalType": "address",
          "name": "owner",
          "type": "address"
        },
        {
          "indexed": true,
          "internalType": "address",
          "name": "approved",
          "type": "address"
        },
        {
          "indexed": true,
          "internalType": "uint256",
          "name": "tokenId",
          "type": "uint256"
        }
      ],
      "name": "Approval",
      "type": "event"
    },
    {
      "anonymous": false,
      "inputs": [
        {
          "indexed": true,
          "internalType": "address",
          "name": "owner",
          "type": "address"
        },
        {
          "indexed": true,
          "internalType": "address",
          "name": "operator",
          "type": "address"
        },
        {
          "indexed": false,
          "internalType": "bool",
          "name": "approved",
          "type": "bool"
        }
      ],
      "name": "ApprovalForAll",
      "type": "event"
    },
    {
      "anonymous": false,
      "inputs": [
        {
          "indexed": false,
          "internalType": "uint256",
          "name": "_fromTokenId",
          "type": "uint256"
        },
        {
          "indexed": false,
          "internalType": "uint256",
          "name": "_toTokenId",
          "type": "uint256"
        }
      ],
      "name": "BatchMetadataUpdate",
      "type": "event"
    },
    {
      "anonymous": false,
      "inputs": [
        {
          "indexed": false,
          "internalType": "uint256",
          "name": "_tokenId",
          "type": "uint256"
        }
      ],
      "name": "MetadataUpdate",
      "type": "event"
    },
    {
      "anonymous": false,
      "inputs": [
        {
          "indexed": true,
          "internalType": "address",
          "name": "owner",
          "type": "address"
        },
        {
          "indexed": true,
          "internalType": "uint256",
          "name": "tokenId",
          "type": "uint256"
        },
        {
          "indexed": false,
          "internalType": "string",
          "name": "tokenURI",
          "type": "string"
        }
      ],
      "name": "NftMinted",
      "type": "event"
    },
    {
      "anonymous": false,
      "inputs": [
        {
          "indexed": true,
          "internalType": "address",
          "name": "previousOwner",
          "type": "address"
        },
        {
          "indexed": true,
          "internalType": "address",
          "name": "newOwner",
          "type": "address"
        }
      ],
      "name": "OwnershipTransferred",
      "type": "event"
    },
    {
      "anonymous": false,
      "inputs": [
        {
          "indexed": true,
          "internalType": "address",
          "name": "from",
          "type": "address"
        },
        {
          "indexed": true,
          "internalType": "address",
          "name": "to",
          "type": "address"
        },
        {
          "indexed": true,
          "internalType": "uint256",
          "name": "tokenId",
          "type": "uint256"
        }
      ],
      "name": "Transfer",
      "type": "event"
    },
    {
      "inputs": [
        {
          "internalType": "address",
          "name": "to",
          "type": "address"
        },
        {
          "internalType": "uint256",
          "name": "tokenId",
          "type": "uint256"
        }
      ],
      "name": "approve",
      "outputs": [],
      "stateMutability": "nonpayable",
      "type": "function"
    },
    {
      "inputs": [
        {
          "internalType": "address",
          "name": "owner",
          "type": "address"
        }
      ],
      "name": "balanceOf",
      "outputs": [
        {
          "internalType": "uint256",
          "name": "",
          "type": "uint256"
        }
      ],
      "stateMutability": "view",
      "type": "function"
    },
    {
      "inputs": [
        {
          "internalType": "uint256",
          "name": "tokenId",
          "type": "uint256"
        }
      ],
      "name": "getApproved",
      "outputs": [
        {
          "internalType": "address",
          "name": "",
          "type": "address"
        }
      ],
      "stateMutability": "view",
      "type": "function"
    },
    {
      "inputs": [],
      "name": "getTokenId",
      "outputs": [
        {
          "internalType": "uint256",
          "name": "",
          "type": "uint256"
        }
      ],
      "stateMutability": "view",
      "type": "function"
    },
    {
      "inputs": [
        {
          "internalType": "uint256",
          "name": "_tokenId",
          "type": "uint256"
        }
      ],
      "name": "getTokenUri",
      "outputs": [
        {
          "internalType": "string",
          "name": "",
          "type": "string"
        }
      ],
      "stateMutability": "view",
      "type": "function"
    },
    {
      "inputs": [
        {
          "internalType": "address",
          "name": "owner",
          "type": "address"
        },
        {
          "internalType": "address",
          "name": "operator",
          "type": "address"
        }
      ],
      "name": "isApprovedForAll",
      "outputs": [
        {
          "internalType": "bool",
          "name": "",
          "type": "bool"
        }
      ],
      "stateMutability": "view",
      "type": "function"
    },
    {
      "inputs": [
        {
          "internalType": "address",
          "name": "_to",
          "type": "address"
        },
        {
          "internalType": "uint256",
          "name": "_price",
          "type": "uint256"
        },
        {
          "internalType": "string",
          "name": "_tokenURI",
          "type": "string"
        }
      ],
      "name": "listItem",
      "outputs": [],
      "stateMutability": "nonpayable",
      "type": "function"
    },
    {
      "inputs": [],
      "name": "name",
      "outputs": [
        {
          "internalType": "string",
          "name": "",
          "type": "string"
        }
      ],
      "stateMutability": "view",
      "type": "function"
    },
    {
      "inputs": [],
      "name": "owner",
      "outputs": [
        {
          "internalType": "address",
          "name": "",
          "type": "address"
        }
      ],
      "stateMutability": "view",
      "type": "function"
    },
    {
      "inputs": [
        {
          "internalType": "uint256",
          "name": "tokenId",
          "type": "uint256"
        }
      ],
      "name": "ownerOf",
      "outputs": [
        {
          "internalType": "address",
          "name": "",
          "type": "address"
        }
      ],
      "stateMutability": "view",
      "type": "function"
    },
    {
      "inputs": [],
      "name": "renounceOwnership",
      "outputs": [],
      "stateMutability": "nonpayable",
      "type": "function"
    },
    {
      "inputs": [
        {
          "internalType": "address",
          "name": "from",
          "type": "address"
        },
        {
          "internalType": "address",
          "name": "to",
          "type": "address"
        },
        {
          "internalType": "uint256",
          "name": "tokenId",
          "type": "uint256"
        }
      ],
      "name": "safeTransferFrom",
      "outputs": [],
      "stateMutability": "nonpayable",
      "type": "function"
    },
    {
      "inputs": [
        {
          "internalType": "address",
          "name": "from",
          "type": "address"
        },
        {
          "internalType": "address",
          "name": "to",
          "type": "address"
        },
        {
          "internalType": "uint256",
          "name": "tokenId",
          "type": "uint256"
        },
        {
          "internalType": "bytes",
          "name": "data",
          "type": "bytes"
        }
      ],
      "name": "safeTransferFrom",
      "outputs": [],
      "stateMutability": "nonpayable",
      "type": "function"
    },
    {
      "inputs": [
        {
          "internalType": "address",
          "name": "operator",
          "type": "address"
        },
        {
          "internalType": "bool",
          "name": "approved",
          "type": "bool"
        }
      ],
      "name": "setApprovalForAll",
      "outputs": [],
      "stateMutability": "nonpayable",
      "type": "function"
    },
    {
      "inputs": [
        {
          "internalType": "bytes4",
          "name": "interfaceId",
          "type": "bytes4"
        }
      ],
      "name": "supportsInterface",
      "outputs": [
        {
          "internalType": "bool",
          "name": "",
          "type": "bool"
        }
      ],
      "stateMutability": "view",
      "type": "function"
    },
    {
      "inputs": [],
      "name": "symbol",
      "outputs": [
        {
          "internalType": "string",
          "name": "",
          "type": "string"
        }
      ],
      "stateMutability": "view",
      "type": "function"
    },
    {
      "inputs": [
        {
          "internalType": "uint256",
          "name": "tokenId",
          "type": "uint256"
        }
      ],
      "name": "tokenURI",
      "outputs": [
        {
          "internalType": "string",
          "name": "",
          "type": "string"
        }
      ],
      "stateMutability": "view",
      "type": "function"
    },
    {
      "inputs": [
        {
          "internalType": "address",
          "name": "_from",
          "type": "address"
        },
        {
          "internalType": "address",
          "name": "_to",
          "type": "address"
        },
        {
          "internalType": "uint256",
          "name": "_tokenId",
          "type": "uint256"
        },
        {
          "internalType": "uint256",
          "name": "_price",
          "type": "uint256"
        }
      ],
      "name": "transfer",
      "outputs": [],
      "stateMutability": "nonpayable",
      "type": "function"
    },
    {
      "inputs": [
        {
          "internalType": "address",
          "name": "from",
          "type": "address"
        },
        {
          "internalType": "address",
          "name": "to",
          "type": "address"
        },
        {
          "internalType": "uint256",
          "name": "tokenId",
          "type": "uint256"
        }
      ],
      "name": "transferFrom",
      "outputs": [],
      "stateMutability": "nonpayable",
      "type": "function"
    },
    {
      "inputs": [
        {
          "internalType": "address",
          "name": "newOwner",
          "type": "address"
        }
      ],
      "name": "transferOwnership",
      "outputs": [],
      "stateMutability": "nonpayable",
      "type": "function"
    }
  ],
  "bytecode": "0x60806040523480156200001157600080fd5b50336040518060400160405280601481526020017f446563656e7472616c697a6564204573746174650000000000000000000000008152506040518060400160405280600381526020017f445245000000000000000000000000000000000000000000000000000000000081525081600090816200009091906200047a565b508060019081620000a291906200047a565b505050600073ffffffffffffffffffffffffffffffffffffffff168173ffffffffffffffffffffffffffffffffffffffff16036200011a5760006040517f1e4fbdf7000000000000000000000000000000000000000000000000000000008152600401620001119190620005a6565b60405180910390fd5b6200012b816200013a60201b60201c565b506000600881905550620005c3565b6000600760009054906101000a900473ffffffffffffffffffffffffffffffffffffffff16905081600760006101000a81548173ffffffffffffffffffffffffffffffffffffffff021916908373ffffffffffffffffffffffffffffffffffffffff1602179055508173ffffffffffffffffffffffffffffffffffffffff168173ffffffffffffffffffffffffffffffffffffffff167f8be0079c531659141344cd1fd0a4f28419497f9722a3daafe3b4186f6b6457e060405160405180910390a35050565b600081519050919050565b7f4e487b7100000000000000000000000000000000000000000000000000000000600052604160045260246000fd5b7f4e487b7100000000000000000000000000000000000000000000000000000000600052602260045260246000fd5b600060028204905060018216806200028257607f821691505b6020821081036200029857620002976200023a565b5b50919050565b60008190508160005260206000209050919050565b60006020601f8301049050919050565b600082821b905092915050565b600060088302620003027fffffffffffffffffffffffffffffffffffffffffffffffffffffffffffffffff82620002c3565b6200030e8683620002c3565b95508019841693508086168417925050509392505050565b6000819050919050565b6000819050919050565b60006200035b620003556200034f8462000326565b62000330565b62000326565b9050919050565b6000819050919050565b62000377836200033a565b6200038f620003868262000362565b848454620002d0565b825550505050565b600090565b620003a662000397565b620003b38184846200036c565b505050565b5b81811015620003db57620003cf6000826200039c565b600181019050620003b9565b5050565b601f8211156200042a57620003f4816200029e565b620003ff84620002b3565b810160208510156200040f578190505b620004276200041e85620002b3565b830182620003b8565b50505b505050565b600082821c905092915050565b60006200044f600019846008026200042f565b1980831691505092915050565b60006200046a83836200043c565b9150826002028217905092915050565b620004858262000200565b67ffffffffffffffff811115620004a157620004a06200020b565b5b620004ad825462000269565b620004ba828285620003df565b600060209050601f831160018114620004f25760008415620004dd578287015190505b620004e985826200045c565b86555062000559565b601f19841662000502866200029e565b60005b828110156200052c5784890151825560018201915060208501945060208101905062000505565b868310156200054c578489015162000548601f8916826200043c565b8355505b6001600288020188555050505b505050505050565b600073ffffffffffffffffffffffffffffffffffffffff82169050919050565b60006200058e8262000561565b9050919050565b620005a08162000581565b82525050565b6000602082019050620005bd600083018462000595565b92915050565b612b3280620005d36000396000f3fe608060405234801561001057600080fd5b506004361061012c5760003560e01c806370a08231116100ad578063a22cb46511610071578063a22cb4651461032f578063b88d4fde1461034b578063c87b56dd14610367578063e985e9c514610397578063f2fde38b146103c75761012c565b806370a0823114610289578063715018a6146102b95780638ad91345146102c35780638da5cb5b146102f357806395d89b41146103115761012c565b8063095ea7b3116100f4578063095ea7b3146101e95780631b4ce7c51461020557806323b872dd1461022157806342842e0e1461023d5780636352211e146102595761012c565b8063010a38f51461013157806301ffc9a71461014f5780630411b2521461017f57806306fdde031461019b578063081812fc146101b9575b600080fd5b6101396103e3565b6040516101469190611ebd565b60405180910390f35b61016960048036038101906101649190611f44565b6103f5565b6040516101769190611f8c565b60405180910390f35b61019960048036038101906101949190612031565b610456565b005b6101a361059a565b6040516101b09190612128565b60405180910390f35b6101d360048036038101906101ce919061214a565b61062c565b6040516101e09190612186565b60405180910390f35b61020360048036038101906101fe91906121a1565b610648565b005b61021f600480360381019061021a9190612316565b61065e565b005b61023b60048036038101906102369190612385565b6106eb565b005b61025760048036038101906102529190612385565b6107ed565b005b610273600480360381019061026e919061214a565b61080d565b6040516102809190612186565b60405180910390f35b6102a3600480360381019061029e91906123d8565b61081f565b6040516102b09190611ebd565b60405180910390f35b6102c16108d9565b005b6102dd60048036038101906102d8919061214a565b6108ed565b6040516102ea9190612128565b60405180910390f35b6102fb610907565b6040516103089190612186565b60405180910390f35b610319610931565b6040516103269190612128565b60405180910390f35b61034960048036038101906103449190612431565b6109c3565b005b61036560048036038101906103609190612512565b6109d9565b005b610381600480360381019061037c919061214a565b6109f6565b60405161038e9190612128565b60405180910390f35b6103b160048036038101906103ac9190612595565b610b09565b6040516103be9190611f8c565b60405180910390f35b6103e160048036038101906103dc91906123d8565b610b9d565b005b60006103ed610c23565b600854905090565b6000634906490660e01b7bffffffffffffffffffffffffffffffffffffffffffffffffffffffff1916827bffffffffffffffffffffffffffffffffffffffffffffffffffffffff1916148061044f575061044e82610caa565b5b9050919050565b600a60008573ffffffffffffffffffffffffffffffffffffffff1673ffffffffffffffffffffffffffffffffffffffff1681526020019081526020016000206000838152602001908152602001600020548110156104e0576040517f4576084300000000000000000000000000000000000000000000000000000000815260040160405180910390fd5b600a60008573ffffffffffffffffffffffffffffffffffffffff1673ffffffffffffffffffffffffffffffffffffffff16815260200190815260200160002060008381526020019081526020016000206000905580600a60008573ffffffffffffffffffffffffffffffffffffffff1673ffffffffffffffffffffffffffffffffffffffff168152602001908152602001600020600084815260200190815260200160002081905550610594848484610d8c565b50505050565b6060600080546105a990612604565b80601f01602080910402602001604051908101604052809291908181526020018280546105d590612604565b80156106225780601f106105f757610100808354040283529160200191610622565b820191906000526020600020905b81548152906001019060200180831161060557829003601f168201915b5050505050905090565b600061063782610dac565b5061064182610e34565b9050919050565b61065a8282610655610e71565b610e79565b5050565b610666610c23565b6000600854905082600a60008673ffffffffffffffffffffffffffffffffffffffff1673ffffffffffffffffffffffffffffffffffffffff168152602001908152602001600020600083815260200190815260200160002081905550600860008154809291906106d590612664565b91905055506106e5848284610e8b565b50505050565b600073ffffffffffffffffffffffffffffffffffffffff168273ffffffffffffffffffffffffffffffffffffffff160361075d5760006040517f64a0ae920000000000000000000000000000000000000000000000000000000081526004016107549190612186565b60405180910390fd5b6000610771838361076c610e71565b610ef3565b90508373ffffffffffffffffffffffffffffffffffffffff168173ffffffffffffffffffffffffffffffffffffffff16146107e7578382826040517f64283d7b0000000000000000000000000000000000000000000000000000000081526004016107de939291906126ac565b60405180910390fd5b50505050565b610808838383604051806020016040528060008152506109d9565b505050565b600061081882610dac565b9050919050565b60008073ffffffffffffffffffffffffffffffffffffffff168273ffffffffffffffffffffffffffffffffffffffff16036108925760006040517f89c62b640000000000000000000000000000000000000000000000000000000081526004016108899190612186565b60405180910390fd5b600360008373ffffffffffffffffffffffffffffffffffffffff1673ffffffffffffffffffffffffffffffffffffffff168152602001908152602001600020549050919050565b6108e1610c23565b6108eb600061110d565b565b60606108f7610c23565b610900826109f6565b9050919050565b6000600760009054906101000a900473ffffffffffffffffffffffffffffffffffffffff16905090565b60606001805461094090612604565b80601f016020809104026020016040519081016040528092919081815260200182805461096c90612604565b80156109b95780601f1061098e576101008083540402835291602001916109b9565b820191906000526020600020905b81548152906001019060200180831161099c57829003601f168201915b5050505050905090565b6109d56109ce610e71565b83836111d3565b5050565b6109e48484846106eb565b6109f084848484611342565b50505050565b6060610a0182610dac565b506000600660008481526020019081526020016000208054610a2290612604565b80601f0160208091040260200160405190810160405280929190818152602001828054610a4e90612604565b8015610a9b5780601f10610a7057610100808354040283529160200191610a9b565b820191906000526020600020905b815481529060010190602001808311610a7e57829003601f168201915b505050505090506000610aac6114f9565b90506000815103610ac1578192505050610b04565b600082511115610af6578082604051602001610ade92919061271f565b60405160208183030381529060405292505050610b04565b610aff84611510565b925050505b919050565b6000600560008473ffffffffffffffffffffffffffffffffffffffff1673ffffffffffffffffffffffffffffffffffffffff16815260200190815260200160002060008373ffffffffffffffffffffffffffffffffffffffff1673ffffffffffffffffffffffffffffffffffffffff16815260200190815260200160002060009054906101000a900460ff16905092915050565b610ba5610c23565b600073ffffffffffffffffffffffffffffffffffffffff168173ffffffffffffffffffffffffffffffffffffffff1603610c175760006040517f1e4fbdf7000000000000000000000000000000000000000000000000000000008152600401610c0e9190612186565b60405180910390fd5b610c208161110d565b50565b610c2b610e71565b73ffffffffffffffffffffffffffffffffffffffff16610c49610907565b73ffffffffffffffffffffffffffffffffffffffff1614610ca857610c6c610e71565b6040517f118cdaa7000000000000000000000000000000000000000000000000000000008152600401610c9f9190612186565b60405180910390fd5b565b60007f80ac58cd000000000000000000000000000000000000000000000000000000007bffffffffffffffffffffffffffffffffffffffffffffffffffffffff1916827bffffffffffffffffffffffffffffffffffffffffffffffffffffffff19161480610d7557507f5b5e139f000000000000000000000000000000000000000000000000000000007bffffffffffffffffffffffffffffffffffffffffffffffffffffffff1916827bffffffffffffffffffffffffffffffffffffffffffffffffffffffff1916145b80610d855750610d8482611579565b5b9050919050565b610da7838383604051806020016040528060008152506115e3565b505050565b600080610db883611600565b9050600073ffffffffffffffffffffffffffffffffffffffff168173ffffffffffffffffffffffffffffffffffffffff1603610e2b57826040517f7e273289000000000000000000000000000000000000000000000000000000008152600401610e229190611ebd565b60405180910390fd5b80915050919050565b60006004600083815260200190815260200160002060009054906101000a900473ffffffffffffffffffffffffffffffffffffffff169050919050565b600033905090565b610e86838383600161163d565b505050565b610e958383611802565b610e9f8282611820565b818373ffffffffffffffffffffffffffffffffffffffff167f8e503b21c99b65aca8c7496e1574773871f0a73bf9262e58fb99528b46fd776a83604051610ee69190612128565b60405180910390a3505050565b600080610eff84611600565b9050600073ffffffffffffffffffffffffffffffffffffffff168373ffffffffffffffffffffffffffffffffffffffff1614610f4157610f4081848661187c565b5b600073ffffffffffffffffffffffffffffffffffffffff168173ffffffffffffffffffffffffffffffffffffffff1614610fd257610f8360008560008061163d565b6001600360008373ffffffffffffffffffffffffffffffffffffffff1673ffffffffffffffffffffffffffffffffffffffff168152602001908152602001600020600082825403925050819055505b600073ffffffffffffffffffffffffffffffffffffffff168573ffffffffffffffffffffffffffffffffffffffff1614611055576001600360008773ffffffffffffffffffffffffffffffffffffffff1673ffffffffffffffffffffffffffffffffffffffff168152602001908152602001600020600082825401925050819055505b846002600086815260200190815260200160002060006101000a81548173ffffffffffffffffffffffffffffffffffffffff021916908373ffffffffffffffffffffffffffffffffffffffff160217905550838573ffffffffffffffffffffffffffffffffffffffff168273ffffffffffffffffffffffffffffffffffffffff167fddf252ad1be2c89b69c2b068fc378daa952ba7f163c4a11628f55a4df523b3ef60405160405180910390a4809150509392505050565b6000600760009054906101000a900473ffffffffffffffffffffffffffffffffffffffff16905081600760006101000a81548173ffffffffffffffffffffffffffffffffffffffff021916908373ffffffffffffffffffffffffffffffffffffffff1602179055508173ffffffffffffffffffffffffffffffffffffffff168173ffffffffffffffffffffffffffffffffffffffff167f8be0079c531659141344cd1fd0a4f28419497f9722a3daafe3b4186f6b6457e060405160405180910390a35050565b600073ffffffffffffffffffffffffffffffffffffffff168273ffffffffffffffffffffffffffffffffffffffff160361124457816040517f5b08ba1800000000000000000000000000000000000000000000000000000000815260040161123b9190612186565b60405180910390fd5b80600560008573ffffffffffffffffffffffffffffffffffffffff1673ffffffffffffffffffffffffffffffffffffffff16815260200190815260200160002060008473ffffffffffffffffffffffffffffffffffffffff1673ffffffffffffffffffffffffffffffffffffffff16815260200190815260200160002060006101000a81548160ff0219169083151502179055508173ffffffffffffffffffffffffffffffffffffffff168373ffffffffffffffffffffffffffffffffffffffff167f17307eab39ab6107e8899845ad3d59bd9653f200f220920489ca2b5937696c31836040516113359190611f8c565b60405180910390a3505050565b60008373ffffffffffffffffffffffffffffffffffffffff163b11156114f3578273ffffffffffffffffffffffffffffffffffffffff1663150b7a02611386610e71565b8685856040518563ffffffff1660e01b81526004016113a89493929190612798565b6020604051808303816000875af19250505080156113e457506040513d601f19601f820116820180604052508101906113e191906127f9565b60015b611468573d8060008114611414576040519150601f19603f3d011682016040523d82523d6000602084013e611419565b606091505b50600081510361146057836040517f64a0ae920000000000000000000000000000000000000000000000000000000081526004016114579190612186565b60405180910390fd5b805181602001fd5b63150b7a0260e01b7bffffffffffffffffffffffffffffffffffffffffffffffffffffffff1916817bffffffffffffffffffffffffffffffffffffffffffffffffffffffff1916146114f157836040517f64a0ae920000000000000000000000000000000000000000000000000000000081526004016114e89190612186565b60405180910390fd5b505b50505050565b606060405180602001604052806000815250905090565b606061151b82610dac565b5060006115266114f9565b905060008151116115465760405180602001604052806000815250611571565b8061155084611940565b60405160200161156192919061271f565b6040516020818303038152906040525b915050919050565b60007f01ffc9a7000000000000000000000000000000000000000000000000000000007bffffffffffffffffffffffffffffffffffffffffffffffffffffffff1916827bffffffffffffffffffffffffffffffffffffffffffffffffffffffff1916149050919050565b6115ee848484611a0e565b6115fa84848484611342565b50505050565b60006002600083815260200190815260200160002060009054906101000a900473ffffffffffffffffffffffffffffffffffffffff169050919050565b80806116765750600073ffffffffffffffffffffffffffffffffffffffff168273ffffffffffffffffffffffffffffffffffffffff1614155b156117aa57600061168684610dac565b9050600073ffffffffffffffffffffffffffffffffffffffff168373ffffffffffffffffffffffffffffffffffffffff16141580156116f157508273ffffffffffffffffffffffffffffffffffffffff168173ffffffffffffffffffffffffffffffffffffffff1614155b801561170457506117028184610b09565b155b1561174657826040517fa9fbf51f00000000000000000000000000000000000000000000000000000000815260040161173d9190612186565b60405180910390fd5b81156117a857838573ffffffffffffffffffffffffffffffffffffffff168273ffffffffffffffffffffffffffffffffffffffff167f8c5be1e5ebec7d5bd14f71427d1e84f3dd0314c0f7b2291e5b200ac8c7c3b92560405160405180910390a45b505b836004600085815260200190815260200160002060006101000a81548173ffffffffffffffffffffffffffffffffffffffff021916908373ffffffffffffffffffffffffffffffffffffffff16021790555050505050565b61181c828260405180602001604052806000815250611b7b565b5050565b8060066000848152602001908152602001600020908161184091906129d2565b507ff8e1a15aba9398e019f0b49df1a4fde98ee17ae345cb5f6b5e2c27f5033e8ce7826040516118709190611ebd565b60405180910390a15050565b611887838383611b97565b61193b57600073ffffffffffffffffffffffffffffffffffffffff168373ffffffffffffffffffffffffffffffffffffffff16036118fc57806040517f7e2732890000000000000000000000000000000000000000000000000000000081526004016118f39190611ebd565b60405180910390fd5b81816040517f177e802f000000000000000000000000000000000000000000000000000000008152600401611932929190612aa4565b60405180910390fd5b505050565b60606000600161194f84611c58565b01905060008167ffffffffffffffff81111561196e5761196d6121eb565b5b6040519080825280601f01601f1916602001820160405280156119a05781602001600182028036833780820191505090505b509050600082602001820190505b600115611a03578080600190039150507f3031323334353637383961626364656600000000000000000000000000000000600a86061a8153600a85816119f7576119f6612acd565b5b049450600085036119ae575b819350505050919050565b600073ffffffffffffffffffffffffffffffffffffffff168273ffffffffffffffffffffffffffffffffffffffff1603611a805760006040517f64a0ae92000000000000000000000000000000000000000000000000000000008152600401611a779190612186565b60405180910390fd5b6000611a8e83836000610ef3565b9050600073ffffffffffffffffffffffffffffffffffffffff168173ffffffffffffffffffffffffffffffffffffffff1603611b0157816040517f7e273289000000000000000000000000000000000000000000000000000000008152600401611af89190611ebd565b60405180910390fd5b8373ffffffffffffffffffffffffffffffffffffffff168173ffffffffffffffffffffffffffffffffffffffff1614611b75578382826040517f64283d7b000000000000000000000000000000000000000000000000000000008152600401611b6c939291906126ac565b60405180910390fd5b50505050565b611b858383611dab565b611b926000848484611342565b505050565b60008073ffffffffffffffffffffffffffffffffffffffff168373ffffffffffffffffffffffffffffffffffffffff1614158015611c4f57508273ffffffffffffffffffffffffffffffffffffffff168473ffffffffffffffffffffffffffffffffffffffff161480611c105750611c0f8484610b09565b5b80611c4e57508273ffffffffffffffffffffffffffffffffffffffff16611c3683610e34565b73ffffffffffffffffffffffffffffffffffffffff16145b5b90509392505050565b600080600090507a184f03e93ff9f4daa797ed6e38ed64bf6a1f0100000000000000008310611cb6577a184f03e93ff9f4daa797ed6e38ed64bf6a1f0100000000000000008381611cac57611cab612acd565b5b0492506040810190505b6d04ee2d6d415b85acef81000000008310611cf3576d04ee2d6d415b85acef81000000008381611ce957611ce8612acd565b5b0492506020810190505b662386f26fc100008310611d2257662386f26fc100008381611d1857611d17612acd565b5b0492506010810190505b6305f5e1008310611d4b576305f5e1008381611d4157611d40612acd565b5b0492506008810190505b6127108310611d70576127108381611d6657611d65612acd565b5b0492506004810190505b60648310611d935760648381611d8957611d88612acd565b5b0492506002810190505b600a8310611da2576001810190505b80915050919050565b600073ffffffffffffffffffffffffffffffffffffffff168273ffffffffffffffffffffffffffffffffffffffff1603611e1d5760006040517f64a0ae92000000000000000000000000000000000000000000000000000000008152600401611e149190612186565b60405180910390fd5b6000611e2b83836000610ef3565b9050600073ffffffffffffffffffffffffffffffffffffffff168173ffffffffffffffffffffffffffffffffffffffff1614611e9f5760006040517f73c6ac6e000000000000000000000000000000000000000000000000000000008152600401611e969190612186565b60405180910390fd5b505050565b6000819050919050565b611eb781611ea4565b82525050565b6000602082019050611ed26000830184611eae565b92915050565b6000604051905090565b600080fd5b600080fd5b60007fffffffff0000000000000000000000000000000000000000000000000000000082169050919050565b611f2181611eec565b8114611f2c57600080fd5b50565b600081359050611f3e81611f18565b92915050565b600060208284031215611f5a57611f59611ee2565b5b6000611f6884828501611f2f565b91505092915050565b60008115159050919050565b611f8681611f71565b82525050565b6000602082019050611fa16000830184611f7d565b92915050565b600073ffffffffffffffffffffffffffffffffffffffff82169050919050565b6000611fd282611fa7565b9050919050565b611fe281611fc7565b8114611fed57600080fd5b50565b600081359050611fff81611fd9565b92915050565b61200e81611ea4565b811461201957600080fd5b50565b60008135905061202b81612005565b92915050565b6000806000806080858703121561204b5761204a611ee2565b5b600061205987828801611ff0565b945050602061206a87828801611ff0565b935050604061207b8782880161201c565b925050606061208c8782880161201c565b91505092959194509250565b600081519050919050565b600082825260208201905092915050565b60005b838110156120d25780820151818401526020810190506120b7565b60008484015250505050565b6000601f19601f8301169050919050565b60006120fa82612098565b61210481856120a3565b93506121148185602086016120b4565b61211d816120de565b840191505092915050565b6000602082019050818103600083015261214281846120ef565b905092915050565b6000602082840312156121605761215f611ee2565b5b600061216e8482850161201c565b91505092915050565b61218081611fc7565b82525050565b600060208201905061219b6000830184612177565b92915050565b600080604083850312156121b8576121b7611ee2565b5b60006121c685828601611ff0565b92505060206121d78582860161201c565b9150509250929050565b600080fd5b600080fd5b7f4e487b7100000000000000000000000000000000000000000000000000000000600052604160045260246000fd5b612223826120de565b810181811067ffffffffffffffff82111715612242576122416121eb565b5b80604052505050565b6000612255611ed8565b9050612261828261221a565b919050565b600067ffffffffffffffff821115612281576122806121eb565b5b61228a826120de565b9050602081019050919050565b82818337600083830152505050565b60006122b96122b484612266565b61224b565b9050828152602081018484840111156122d5576122d46121e6565b5b6122e0848285612297565b509392505050565b600082601f8301126122fd576122fc6121e1565b5b813561230d8482602086016122a6565b91505092915050565b60008060006060848603121561232f5761232e611ee2565b5b600061233d86828701611ff0565b935050602061234e8682870161201c565b925050604084013567ffffffffffffffff81111561236f5761236e611ee7565b5b61237b868287016122e8565b9150509250925092565b60008060006060848603121561239e5761239d611ee2565b5b60006123ac86828701611ff0565b93505060206123bd86828701611ff0565b92505060406123ce8682870161201c565b9150509250925092565b6000602082840312156123ee576123ed611ee2565b5b60006123fc84828501611ff0565b91505092915050565b61240e81611f71565b811461241957600080fd5b50565b60008135905061242b81612405565b92915050565b6000806040838503121561244857612447611ee2565b5b600061245685828601611ff0565b92505060206124678582860161241c565b9150509250929050565b600067ffffffffffffffff82111561248c5761248b6121eb565b5b612495826120de565b9050602081019050919050565b60006124b56124b084612471565b61224b565b9050828152602081018484840111156124d1576124d06121e6565b5b6124dc848285612297565b509392505050565b600082601f8301126124f9576124f86121e1565b5b81356125098482602086016124a2565b91505092915050565b6000806000806080858703121561252c5761252b611ee2565b5b600061253a87828801611ff0565b945050602061254b87828801611ff0565b935050604061255c8782880161201c565b925050606085013567ffffffffffffffff81111561257d5761257c611ee7565b5b612589878288016124e4565b91505092959194509250565b600080604083850312156125ac576125ab611ee2565b5b60006125ba85828601611ff0565b92505060206125cb85828601611ff0565b9150509250929050565b7f4e487b7100000000000000000000000000000000000000000000000000000000600052602260045260246000fd5b6000600282049050600182168061261c57607f821691505b60208210810361262f5761262e6125d5565b5b50919050565b7f4e487b7100000000000000000000000000000000000000000000000000000000600052601160045260246000fd5b600061266f82611ea4565b91507fffffffffffffffffffffffffffffffffffffffffffffffffffffffffffffffff82036126a1576126a0612635565b5b600182019050919050565b60006060820190506126c16000830186612177565b6126ce6020830185611eae565b6126db6040830184612177565b949350505050565b600081905092915050565b60006126f982612098565b61270381856126e3565b93506127138185602086016120b4565b80840191505092915050565b600061272b82856126ee565b915061273782846126ee565b91508190509392505050565b600081519050919050565b600082825260208201905092915050565b600061276a82612743565b612774818561274e565b93506127848185602086016120b4565b61278d816120de565b840191505092915050565b60006080820190506127ad6000830187612177565b6127ba6020830186612177565b6127c76040830185611eae565b81810360608301526127d9818461275f565b905095945050505050565b6000815190506127f381611f18565b92915050565b60006020828403121561280f5761280e611ee2565b5b600061281d848285016127e4565b91505092915050565b60008190508160005260206000209050919050565b60006020601f8301049050919050565b600082821b905092915050565b6000600883026128887fffffffffffffffffffffffffffffffffffffffffffffffffffffffffffffffff8261284b565b612892868361284b565b95508019841693508086168417925050509392505050565b6000819050919050565b60006128cf6128ca6128c584611ea4565b6128aa565b611ea4565b9050919050565b6000819050919050565b6128e9836128b4565b6128fd6128f5826128d6565b848454612858565b825550505050565b600090565b612912612905565b61291d8184846128e0565b505050565b5b818110156129415761293660008261290a565b600181019050612923565b5050565b601f8211156129865761295781612826565b6129608461283b565b8101602085101561296f578190505b61298361297b8561283b565b830182612922565b50505b505050565b600082821c905092915050565b60006129a96000198460080261298b565b1980831691505092915050565b60006129c28383612998565b9150826002028217905092915050565b6129db82612098565b67ffffffffffffffff8111156129f4576129f36121eb565b5b6129fe8254612604565b612a09828285612945565b600060209050601f831160018114612a3c5760008415612a2a578287015190505b612a3485826129b6565b865550612a9c565b601f198416612a4a86612826565b60005b82811015612a7257848901518255600182019150602085019450602081019050612a4d565b86831015612a8f5784890151612a8b601f891682612998565b8355505b6001600288020188555050505b505050505050565b6000604082019050612ab96000830185612177565b612ac66020830184611eae565b9392505050565b7f4e487b7100000000000000000000000000000000000000000000000000000000600052601260045260246000fdfea26469706673582212206e1efa56e0bd148fa1ab646f61c6da12a746b37d09ebb80dcb1ddde9fffe5f1564736f6c63430008140033",
  "linkReferences": {},
  "deployedLinkReferences": {}
}